{"abi":[{"inputs":[],"stateMutability":"nonpayable","type":"constructor"},{"inputs":[{"internalType":"uint256","name":"_id","type":"uint256"},{"internalType":"address","name":"_address","type":"address"}],"name":"assginSurveyAddress","outputs":[],"stateMutability":"nonpayable","type":"function"},{"inputs":[{"internalType":"uint256","name":"_id","type":"uint256"}],"name":"closeSurvey","outputs":[],"stateMutability":"nonpayable","type":"function"},{"inputs":[{"internalType":"bytes","name":"_message","type":"bytes"}],"name":"createSurveyRequest","outputs":[],"stateMutability":"nonpayable","type":"function"},{"inputs":[],"name":"creator","outputs":[{"internalType":"address","name":"","type":"address"}],"stateMutability":"view","type":"function"},{"inputs":[{"internalType":"uint256","name":"_id","type":"uint256"},{"internalType":"uint256","name":"_cursor","type":"uint256"},{"internalType":"uint256","name":"_length","type":"uint256"}],"name":"getAccountsAddress","outputs":[{"internalType":"address[]","name":"accountList","type":"address[]"},{"internalType":"bool[]","name":"rightList","type":"bool[]"},{"internalType":"uint256","name":"newCursor","type":"uint256"}],"stateMutability":"view","type":"function"},{"inputs":[{"internalType":"uint256","name":"_id","type":"uint256"}],"name":"getApprovedAccount","outputs":[{"internalType":"address[]","name":"accountList","type":"address[]"}],"stateMutability":"view","type":"function"},{"inputs":[{"internalType":"uint256","name":"_id","type":"uint256"}],"name":"getHashAccount","outputs":[{"internalType":"bytes32","name":"","type":"bytes32"}],"stateMutability":"view","type":"function"},{"inputs":[{"internalType":"uint256","name":"_id","type":"uint256"}],"name":"getSurveyAddress","outputs":[{"internalType":"bool","name":"isAssign","type":"bool"},{"internalType":"address","name":"assignAddress","type":"address"}],"stateMutability":"view","type":"function"},{"inputs":[{"internalType":"uint256","name":"_id","type":"uint256"}],"name":"getSurveyRequest","outputs":[{"internalType":"bool","name":"isOpen","type":"bool"},{"internalType":"bool","name":"isAssignAddress","type":"bool"},{"internalType":"bytes","name":"message","type":"bytes"},{"internalType":"uint256","name":"requestLength","type":"uint256"},{"internalType":"uint256","name":"approvedLength","type":"uint256"},{"internalType":"address","name":"surveyAddress","type":"address"}],"stateMutability":"view","type":"function"},{"inputs":[{"internalType":"uint256","name":"_id","type":"uint256"},{"internalType":"address[]","name":"_accounts","type":"address[]"}],"name":"regisAccountFromRequestPool","outputs":[],"stateMutability":"nonpayable","type":"function"},{"inputs":[{"internalType":"uint256","name":"_id","type":"uint256"}],"name":"requestAssignToSurvey","outputs":[],"stateMutability":"nonpayable","type":"function"},{"inputs":[{"internalType":"uint256","name":"_id","type":"uint256"}],"name":"setHashRightAccount","outputs":[],"stateMutability":"nonpayable","type":"function"},{"inputs":[],"name":"surveySize","outputs":[{"internalType":"uint256","name":"","type":"uint256"}],"stateMutability":"view","type":"function"}],"evm":{"bytecode":{"linkReferences":{},"object":"608060405234801561001057600080fd5b50600080546001600160a01b031916331790556113cb806100326000396000f3fe608060405234801561001057600080fd5b50600436106100de5760003560e01c80637168c90b1161008c57806399ec2f411161006657806399ec2f411461045a5780639bb2c4b314610504578063a456e50614610521578063d8fb49fe1461053e576100de565b80637168c90b146103905780637390c474146103d05780638eb5a5da146103ed576100de565b80632212823d116100bd5780632212823d146102785780634a9c6f101461034a5780634f27fadc14610364576100de565b8062f988d7146100e357806301f9a62a146101ac57806302d05d3f14610254575b600080fd5b61010c600480360360608110156100f957600080fd5b508035906020810135906040013561055b565b604051808060200180602001848152602001838103835286818151815260200191508051906020019060200280838360005b8381101561015657818101518382015260200161013e565b50505050905001838103825285818151815260200191508051906020019060200280838360005b8381101561019557818101518382015260200161017d565b505050509050019550505050505060405180910390f35b610252600480360360208110156101c257600080fd5b8101906020810181356401000000008111156101dd57600080fd5b8201836020820111156101ef57600080fd5b8035906020019184600183028401116401000000008311171561021157600080fd5b91908080601f01602080910402602001604051908101604052809392919081815260200183838082843760009201919091525092955061069e945050505050565b005b61025c610802565b604080516001600160a01b039092168252519081900360200190f35b6102956004803603602081101561028e57600080fd5b5035610811565b60405180871515151581526020018615151515815260200180602001858152602001848152602001836001600160a01b03166001600160a01b03168152602001828103825286818151815260200191508051906020019080838360005b8381101561030a5781810151838201526020016102f2565b50505050905090810190601f1680156103375780820380516001836020036101000a031916815260200191505b5097505050505050505060405180910390f35b610352610958565b60408051918252519081900360200190f35b6102526004803603604081101561037a57600080fd5b50803590602001356001600160a01b031661095e565b6103ad600480360360208110156103a657600080fd5b5035610a04565b6040805192151583526001600160a01b0390911660208301528051918290030190f35b610352600480360360208110156103e657600080fd5b5035610a84565b61040a6004803603602081101561040357600080fd5b5035610af8565b60408051602080825283518183015283519192839290830191858101910280838360005b8381101561044657818101518382015260200161042e565b505050509050019250505060405180910390f35b6102526004803603604081101561047057600080fd5b8135919081019060408101602082013564010000000081111561049257600080fd5b8201836020820111156104a457600080fd5b803590602001918460208302840111640100000000831117156104c657600080fd5b919080806020026020016040519081016040528093929190818152602001838360200280828437600092019190915250929550610c09945050505050565b6102526004803603602081101561051a57600080fd5b5035610df5565b6102526004803603602081101561053757600080fd5b5035610f67565b6102526004803603602081101561055457600080fd5b50356110d0565b6000838152600260205260408120600481015460609283929091859087900381111561058b575060048101548690035b806040519080825280602002602001820160405280156105b5578160200160208202803883390190505b509450806040519080825280602002602001820160405280156105e2578160200160208202803883390190505b50935060005b8181101561068f57600083600401828a018154811061060357fe5b9060005260206000200160009054906101000a90046001600160a01b031690508087838151811061063057fe5b6001600160a01b039283166020918202929092018101919091529082166000908152600586019091526040902054865161010090910460ff169087908490811061067657fe5b91151560209283029190910190910152506001016105e8565b50860191505093509350939050565b6000546001600160a01b031633146106f9576040805162461bcd60e51b81526020600482015260196024820152784f6e6c792043726561746f722043616e2050726f636365737360381b604482015290519081900360640190fd5b6107016111eb565b6001808252602080830182815260c084018581528354600090815260028085526040918290208751815495519389015160608a015160808b01516001600160a01b031664010000000002640100000000600160c01b031991151563010000000263ff00000019931515620100000262ff0000199815156101000261ff001996151560ff19909c169b909b179590951699909917969096169290921716959095179490941691909117835560a086015194830194909455518051859492936107cc938501920190611239565b5060e0820151600382015561010082015180516107f39160048401916020909101906112b7565b50506001805481019055505050565b6000546001600160a01b031681565b6000818152600260205260408120805482916060918391829182919060ff16610881576040805162461bcd60e51b815260206004820152601460248201527f53757276657920646f65736e2774206578697374000000000000000000000000604482015290519081900360640190fd5b805460028083018054604080516020610100600185161581026000190190941695909504601f810186900486028201860190925281815291850460ff9081169c50630100000090950490941699509290918301828280156109235780601f106108f857610100808354040283529160200191610923565b820191906000526020600020905b81548152906001019060200180831161090657829003601f168201915b50505050600483015460038401549354999b989a50919891979296505064010000000090046001600160a01b03169350915050565b60015481565b6000546001600160a01b031633146109b9576040805162461bcd60e51b81526020600482015260196024820152784f6e6c792043726561746f722043616e2050726f636365737360381b604482015290519081900360640190fd5b60009182526002602052604090912080546001600160a01b0390921664010000000002640100000000600160c01b031963ff0000001990931663010000001792909216919091179055565b6000818152600260205260408120805482919060ff16610a5f576040805162461bcd60e51b815260206004820152601160248201527014dd5c9d995e48135d5cdd08115e1a5cdd607a1b604482015290519081900360640190fd5b546301000000810460ff16946401000000009091046001600160a01b03169350915050565b6000818152600260205260408120805462010000900460ff16610aee576040805162461bcd60e51b815260206004820152601660248201527f537572766579204d7573742041737369676e4861736800000000000000000000604482015290519081900360640190fd5b6001015492915050565b606060006002600084815260200190815260200160002090508060030154604051908082528060200260200182016040528015610b3f578160200160208202803883390190505b5091506000805b6004830154811015610c01576000836005016000856004018481548110610b6957fe5b60009182526020808320909101546001600160a01b031683528201929092526040019020805490915060ff6101009091041615610bf857836004018281548110610baf57fe5b9060005260206000200160009054906101000a90046001600160a01b0316858481518110610bd957fe5b6001600160a01b03909216602092830291909101909101526001909201915b50600101610b46565b505050919050565b6000546001600160a01b03163314610c64576040805162461bcd60e51b81526020600482015260196024820152784f6e6c792043726561746f722043616e2050726f636365737360381b604482015290519081900360640190fd5b6000828152600260205260409020805460ff16610cbc576040805162461bcd60e51b815260206004820152601160248201527014dd5c9d995e48135d5cdd08115e1a5cdd607a1b604482015290519081900360640190fd5b8054610100900460ff16610d06576040805162461bcd60e51b815260206004820152600c60248201526b53757276657920436c6f736560a01b604482015290519081900360640190fd5b60005b8251811015610def576000826005016000858481518110610d2657fe5b6020908102919091018101516001600160a01b03168252810191909152604001600020805490915060ff16610da2576040805162461bcd60e51b815260206004820181905260248201527f4861766520616e206163636f756e7420646f65732774206e6f74206578697374604482015290519081900360640190fd5b8054610100900460ff1615610dc257600383018054600019019055610dce565b60038301805460010190555b805461ff001981166101009182900460ff1615909102179055600101610d09565b50505050565b6000818152600260205260409020805460ff16610e4d576040805162461bcd60e51b815260206004820152601160248201527014dd5c9d995e48135d5cdd08115e1a5cdd607a1b604482015290519081900360640190fd5b8054610100900460ff16610e97576040805162461bcd60e51b815260206004820152600c60248201526b53757276657920436c6f736560a01b604482015290519081900360640190fd5b33600090815260058201602052604090205460ff1615610ef4576040805162461bcd60e51b81526020600482015260136024820152721058d8dbdd5b9d08185b1c9958591e48105919606a1b604482015290519081900360640190fd5b610efc611318565b600180825260048301805491820181556000908152602080822090920180546001600160a01b03191633908117909155815260059093018152604090922081518154939092015115156101000261ff001992151560ff19909416939093179190911691909117905550565b6000546001600160a01b03163314610fc2576040805162461bcd60e51b81526020600482015260196024820152784f6e6c792043726561746f722043616e2050726f636365737360381b604482015290519081900360640190fd5b60008181526002602052604090208054610100900460ff1615611020576040805162461bcd60e51b8152602060048201526011602482015270537572766579204d75737420436c6f736560781b604482015290519081900360640190fd5b61102982610af8565b306000809054906101000a90046001600160a01b031660405160200180848051906020019060200280838360005b8381101561106f578181015183820152602001611057565b5050506bffffffffffffffffffffffff19606097881b811694909201938452509390941b90921660148301525060408051600881840301815260289092019052805160209091012060018401555050805462ff000019166201000017905550565b6000546001600160a01b0316331461112b576040805162461bcd60e51b81526020600482015260196024820152784f6e6c792043726561746f722043616e2050726f636365737360381b604482015290519081900360640190fd5b6000818152600260205260409020805460ff16611183576040805162461bcd60e51b815260206004820152601160248201527014dd5c9d995e48135d5cdd08115e1a5cdd607a1b604482015290519081900360640190fd5b6004816003015410156111c75760405162461bcd60e51b81526004018080602001828103825260258152602001806113716025913960400191505060405180910390fd5b6000828152600260205260409020805461ff00191690556111e782610f67565b5050565b604080516101208101825260008082526020820181905291810182905260608082018390526080820183905260a0820183905260c0820181905260e082019290925261010081019190915290565b828054600181600116156101000203166002900490600052602060002090601f016020900481019282601f1061127a57805160ff19168380011785556112a7565b828001600101855582156112a7579182015b828111156112a757825182559160200191906001019061128c565b506112b392915061132f565b5090565b82805482825590600052602060002090810192821561130c579160200282015b8281111561130c57825182546001600160a01b0319166001600160a01b039091161782556020909201916001909101906112d7565b506112b392915061134c565b604080518082019091526000808252602082015290565b61134991905b808211156112b35760008155600101611335565b90565b61134991905b808211156112b35780546001600160a01b031916815560010161135256fe417070726f766564206d656d626572206d757374206e656564206d6f7265207468616e2034a26469706673582212208753d2cfdb3304b8933f1e6b1847b2751f53c543d060c7626e79878617b0069764736f6c63430006020033","opcodes":"PUSH1 0x80 PUSH1 0x40 MSTORE CALLVALUE DUP1 ISZERO PUSH2 0x10 JUMPI PUSH1 0x0 DUP1 REVERT JUMPDEST POP PUSH1 0x0 DUP1 SLOAD PUSH1 0x1 PUSH1 0x1 PUSH1 0xA0 SHL SUB NOT AND CALLER OR SWAP1 SSTORE PUSH2 0x13CB DUP1 PUSH2 0x32 PUSH1 0x0 CODECOPY PUSH1 0x0 RETURN INVALID PUSH1 0x80 PUSH1 0x40 MSTORE CALLVALUE DUP1 ISZERO PUSH2 0x10 JUMPI PUSH1 0x0 DUP1 REVERT JUMPDEST POP PUSH1 0x4 CALLDATASIZE LT PUSH2 0xDE JUMPI PUSH1 0x0 CALLDATALOAD PUSH1 0xE0 SHR DUP1 PUSH4 0x7168C90B GT PUSH2 0x8C JUMPI DUP1 PUSH4 0x99EC2F41 GT PUSH2 0x66 JUMPI DUP1 PUSH4 0x99EC2F41 EQ PUSH2 0x45A JUMPI DUP1 PUSH4 0x9BB2C4B3 EQ PUSH2 0x504 JUMPI DUP1 PUSH4 0xA456E506 EQ PUSH2 0x521 JUMPI DUP1 PUSH4 0xD8FB49FE EQ PUSH2 0x53E JUMPI PUSH2 0xDE JUMP JUMPDEST DUP1 PUSH4 0x7168C90B EQ PUSH2 0x390 JUMPI DUP1 PUSH4 0x7390C474 EQ PUSH2 0x3D0 JUMPI DUP1 PUSH4 0x8EB5A5DA EQ PUSH2 0x3ED JUMPI PUSH2 0xDE JUMP JUMPDEST DUP1 PUSH4 0x2212823D GT PUSH2 0xBD JUMPI DUP1 PUSH4 0x2212823D EQ PUSH2 0x278 JUMPI DUP1 PUSH4 0x4A9C6F10 EQ PUSH2 0x34A JUMPI DUP1 PUSH4 0x4F27FADC EQ PUSH2 0x364 JUMPI PUSH2 0xDE JUMP JUMPDEST DUP1 PUSH3 0xF988D7 EQ PUSH2 0xE3 JUMPI DUP1 PUSH4 0x1F9A62A EQ PUSH2 0x1AC JUMPI DUP1 PUSH4 0x2D05D3F EQ PUSH2 0x254 JUMPI JUMPDEST PUSH1 0x0 DUP1 REVERT JUMPDEST PUSH2 0x10C PUSH1 0x4 DUP1 CALLDATASIZE SUB PUSH1 0x60 DUP2 LT ISZERO PUSH2 0xF9 JUMPI PUSH1 0x0 DUP1 REVERT JUMPDEST POP DUP1 CALLDATALOAD SWAP1 PUSH1 0x20 DUP2 ADD CALLDATALOAD SWAP1 PUSH1 0x40 ADD CALLDATALOAD PUSH2 0x55B JUMP JUMPDEST PUSH1 0x40 MLOAD DUP1 DUP1 PUSH1 0x20 ADD DUP1 PUSH1 0x20 ADD DUP5 DUP2 MSTORE PUSH1 0x20 ADD DUP4 DUP2 SUB DUP4 MSTORE DUP7 DUP2 DUP2 MLOAD DUP2 MSTORE PUSH1 0x20 ADD SWAP2 POP DUP1 MLOAD SWAP1 PUSH1 0x20 ADD SWAP1 PUSH1 0x20 MUL DUP1 DUP4 DUP4 PUSH1 0x0 JUMPDEST DUP4 DUP2 LT ISZERO PUSH2 0x156 JUMPI DUP2 DUP2 ADD MLOAD DUP4 DUP3 ADD MSTORE PUSH1 0x20 ADD PUSH2 0x13E JUMP JUMPDEST POP POP POP POP SWAP1 POP ADD DUP4 DUP2 SUB DUP3 MSTORE DUP6 DUP2 DUP2 MLOAD DUP2 MSTORE PUSH1 0x20 ADD SWAP2 POP DUP1 MLOAD SWAP1 PUSH1 0x20 ADD SWAP1 PUSH1 0x20 MUL DUP1 DUP4 DUP4 PUSH1 0x0 JUMPDEST DUP4 DUP2 LT ISZERO PUSH2 0x195 JUMPI DUP2 DUP2 ADD MLOAD DUP4 DUP3 ADD MSTORE PUSH1 0x20 ADD PUSH2 0x17D JUMP JUMPDEST POP POP POP POP SWAP1 POP ADD SWAP6 POP POP POP POP POP POP PUSH1 0x40 MLOAD DUP1 SWAP2 SUB SWAP1 RETURN JUMPDEST PUSH2 0x252 PUSH1 0x4 DUP1 CALLDATASIZE SUB PUSH1 0x20 DUP2 LT ISZERO PUSH2 0x1C2 JUMPI PUSH1 0x0 DUP1 REVERT JUMPDEST DUP2 ADD SWAP1 PUSH1 0x20 DUP2 ADD DUP2 CALLDATALOAD PUSH5 0x100000000 DUP2 GT ISZERO PUSH2 0x1DD JUMPI PUSH1 0x0 DUP1 REVERT JUMPDEST DUP3 ADD DUP4 PUSH1 0x20 DUP3 ADD GT ISZERO PUSH2 0x1EF JUMPI PUSH1 0x0 DUP1 REVERT JUMPDEST DUP1 CALLDATALOAD SWAP1 PUSH1 0x20 ADD SWAP2 DUP5 PUSH1 0x1 DUP4 MUL DUP5 ADD GT PUSH5 0x100000000 DUP4 GT OR ISZERO PUSH2 0x211 JUMPI PUSH1 0x0 DUP1 REVERT JUMPDEST SWAP2 SWAP1 DUP1 DUP1 PUSH1 0x1F ADD PUSH1 0x20 DUP1 SWAP2 DIV MUL PUSH1 0x20 ADD PUSH1 0x40 MLOAD SWAP1 DUP2 ADD PUSH1 0x40 MSTORE DUP1 SWAP4 SWAP3 SWAP2 SWAP1 DUP2 DUP2 MSTORE PUSH1 0x20 ADD DUP4 DUP4 DUP1 DUP3 DUP5 CALLDATACOPY PUSH1 0x0 SWAP3 ADD SWAP2 SWAP1 SWAP2 MSTORE POP SWAP3 SWAP6 POP PUSH2 0x69E SWAP5 POP POP POP POP POP JUMP JUMPDEST STOP JUMPDEST PUSH2 0x25C PUSH2 0x802 JUMP JUMPDEST PUSH1 0x40 DUP1 MLOAD PUSH1 0x1 PUSH1 0x1 PUSH1 0xA0 SHL SUB SWAP1 SWAP3 AND DUP3 MSTORE MLOAD SWAP1 DUP2 SWAP1 SUB PUSH1 0x20 ADD SWAP1 RETURN JUMPDEST PUSH2 0x295 PUSH1 0x4 DUP1 CALLDATASIZE SUB PUSH1 0x20 DUP2 LT ISZERO PUSH2 0x28E JUMPI PUSH1 0x0 DUP1 REVERT JUMPDEST POP CALLDATALOAD PUSH2 0x811 JUMP JUMPDEST PUSH1 0x40 MLOAD DUP1 DUP8 ISZERO ISZERO ISZERO ISZERO DUP2 MSTORE PUSH1 0x20 ADD DUP7 ISZERO ISZERO ISZERO ISZERO DUP2 MSTORE PUSH1 0x20 ADD DUP1 PUSH1 0x20 ADD DUP6 DUP2 MSTORE PUSH1 0x20 ADD DUP5 DUP2 MSTORE PUSH1 0x20 ADD DUP4 PUSH1 0x1 PUSH1 0x1 PUSH1 0xA0 SHL SUB AND PUSH1 0x1 PUSH1 0x1 PUSH1 0xA0 SHL SUB AND DUP2 MSTORE PUSH1 0x20 ADD DUP3 DUP2 SUB DUP3 MSTORE DUP7 DUP2 DUP2 MLOAD DUP2 MSTORE PUSH1 0x20 ADD SWAP2 POP DUP1 MLOAD SWAP1 PUSH1 0x20 ADD SWAP1 DUP1 DUP4 DUP4 PUSH1 0x0 JUMPDEST DUP4 DUP2 LT ISZERO PUSH2 0x30A JUMPI DUP2 DUP2 ADD MLOAD DUP4 DUP3 ADD MSTORE PUSH1 0x20 ADD PUSH2 0x2F2 JUMP JUMPDEST POP POP POP POP SWAP1 POP SWAP1 DUP2 ADD SWAP1 PUSH1 0x1F AND DUP1 ISZERO PUSH2 0x337 JUMPI DUP1 DUP3 SUB DUP1 MLOAD PUSH1 0x1 DUP4 PUSH1 0x20 SUB PUSH2 0x100 EXP SUB NOT AND DUP2 MSTORE PUSH1 0x20 ADD SWAP2 POP JUMPDEST POP SWAP8 POP POP POP POP POP POP POP POP PUSH1 0x40 MLOAD DUP1 SWAP2 SUB SWAP1 RETURN JUMPDEST PUSH2 0x352 PUSH2 0x958 JUMP JUMPDEST PUSH1 0x40 DUP1 MLOAD SWAP2 DUP3 MSTORE MLOAD SWAP1 DUP2 SWAP1 SUB PUSH1 0x20 ADD SWAP1 RETURN JUMPDEST PUSH2 0x252 PUSH1 0x4 DUP1 CALLDATASIZE SUB PUSH1 0x40 DUP2 LT ISZERO PUSH2 0x37A JUMPI PUSH1 0x0 DUP1 REVERT JUMPDEST POP DUP1 CALLDATALOAD SWAP1 PUSH1 0x20 ADD CALLDATALOAD PUSH1 0x1 PUSH1 0x1 PUSH1 0xA0 SHL SUB AND PUSH2 0x95E JUMP JUMPDEST PUSH2 0x3AD PUSH1 0x4 DUP1 CALLDATASIZE SUB PUSH1 0x20 DUP2 LT ISZERO PUSH2 0x3A6 JUMPI PUSH1 0x0 DUP1 REVERT JUMPDEST POP CALLDATALOAD PUSH2 0xA04 JUMP JUMPDEST PUSH1 0x40 DUP1 MLOAD SWAP3 ISZERO ISZERO DUP4 MSTORE PUSH1 0x1 PUSH1 0x1 PUSH1 0xA0 SHL SUB SWAP1 SWAP2 AND PUSH1 0x20 DUP4 ADD MSTORE DUP1 MLOAD SWAP2 DUP3 SWAP1 SUB ADD SWAP1 RETURN JUMPDEST PUSH2 0x352 PUSH1 0x4 DUP1 CALLDATASIZE SUB PUSH1 0x20 DUP2 LT ISZERO PUSH2 0x3E6 JUMPI PUSH1 0x0 DUP1 REVERT JUMPDEST POP CALLDATALOAD PUSH2 0xA84 JUMP JUMPDEST PUSH2 0x40A PUSH1 0x4 DUP1 CALLDATASIZE SUB PUSH1 0x20 DUP2 LT ISZERO PUSH2 0x403 JUMPI PUSH1 0x0 DUP1 REVERT JUMPDEST POP CALLDATALOAD PUSH2 0xAF8 JUMP JUMPDEST PUSH1 0x40 DUP1 MLOAD PUSH1 0x20 DUP1 DUP3 MSTORE DUP4 MLOAD DUP2 DUP4 ADD MSTORE DUP4 MLOAD SWAP2 SWAP3 DUP4 SWAP3 SWAP1 DUP4 ADD SWAP2 DUP6 DUP2 ADD SWAP2 MUL DUP1 DUP4 DUP4 PUSH1 0x0 JUMPDEST DUP4 DUP2 LT ISZERO PUSH2 0x446 JUMPI DUP2 DUP2 ADD MLOAD DUP4 DUP3 ADD MSTORE PUSH1 0x20 ADD PUSH2 0x42E JUMP JUMPDEST POP POP POP POP SWAP1 POP ADD SWAP3 POP POP POP PUSH1 0x40 MLOAD DUP1 SWAP2 SUB SWAP1 RETURN JUMPDEST PUSH2 0x252 PUSH1 0x4 DUP1 CALLDATASIZE SUB PUSH1 0x40 DUP2 LT ISZERO PUSH2 0x470 JUMPI PUSH1 0x0 DUP1 REVERT JUMPDEST DUP2 CALLDATALOAD SWAP2 SWAP1 DUP2 ADD SWAP1 PUSH1 0x40 DUP2 ADD PUSH1 0x20 DUP3 ADD CALLDATALOAD PUSH5 0x100000000 DUP2 GT ISZERO PUSH2 0x492 JUMPI PUSH1 0x0 DUP1 REVERT JUMPDEST DUP3 ADD DUP4 PUSH1 0x20 DUP3 ADD GT ISZERO PUSH2 0x4A4 JUMPI PUSH1 0x0 DUP1 REVERT JUMPDEST DUP1 CALLDATALOAD SWAP1 PUSH1 0x20 ADD SWAP2 DUP5 PUSH1 0x20 DUP4 MUL DUP5 ADD GT PUSH5 0x100000000 DUP4 GT OR ISZERO PUSH2 0x4C6 JUMPI PUSH1 0x0 DUP1 REVERT JUMPDEST SWAP2 SWAP1 DUP1 DUP1 PUSH1 0x20 MUL PUSH1 0x20 ADD PUSH1 0x40 MLOAD SWAP1 DUP2 ADD PUSH1 0x40 MSTORE DUP1 SWAP4 SWAP3 SWAP2 SWAP1 DUP2 DUP2 MSTORE PUSH1 0x20 ADD DUP4 DUP4 PUSH1 0x20 MUL DUP1 DUP3 DUP5 CALLDATACOPY PUSH1 0x0 SWAP3 ADD SWAP2 SWAP1 SWAP2 MSTORE POP SWAP3 SWAP6 POP PUSH2 0xC09 SWAP5 POP POP POP POP POP JUMP JUMPDEST PUSH2 0x252 PUSH1 0x4 DUP1 CALLDATASIZE SUB PUSH1 0x20 DUP2 LT ISZERO PUSH2 0x51A JUMPI PUSH1 0x0 DUP1 REVERT JUMPDEST POP CALLDATALOAD PUSH2 0xDF5 JUMP JUMPDEST PUSH2 0x252 PUSH1 0x4 DUP1 CALLDATASIZE SUB PUSH1 0x20 DUP2 LT ISZERO PUSH2 0x537 JUMPI PUSH1 0x0 DUP1 REVERT JUMPDEST POP CALLDATALOAD PUSH2 0xF67 JUMP JUMPDEST PUSH2 0x252 PUSH1 0x4 DUP1 CALLDATASIZE SUB PUSH1 0x20 DUP2 LT ISZERO PUSH2 0x554 JUMPI PUSH1 0x0 DUP1 REVERT JUMPDEST POP CALLDATALOAD PUSH2 0x10D0 JUMP JUMPDEST PUSH1 0x0 DUP4 DUP2 MSTORE PUSH1 0x2 PUSH1 0x20 MSTORE PUSH1 0x40 DUP2 KECCAK256 PUSH1 0x4 DUP2 ADD SLOAD PUSH1 0x60 SWAP3 DUP4 SWAP3 SWAP1 SWAP2 DUP6 SWAP1 DUP8 SWAP1 SUB DUP2 GT ISZERO PUSH2 0x58B JUMPI POP PUSH1 0x4 DUP2 ADD SLOAD DUP7 SWAP1 SUB JUMPDEST DUP1 PUSH1 0x40 MLOAD SWAP1 DUP1 DUP3 MSTORE DUP1 PUSH1 0x20 MUL PUSH1 0x20 ADD DUP3 ADD PUSH1 0x40 MSTORE DUP1 ISZERO PUSH2 0x5B5 JUMPI DUP2 PUSH1 0x20 ADD PUSH1 0x20 DUP3 MUL DUP1 CODESIZE DUP4 CODECOPY ADD SWAP1 POP JUMPDEST POP SWAP5 POP DUP1 PUSH1 0x40 MLOAD SWAP1 DUP1 DUP3 MSTORE DUP1 PUSH1 0x20 MUL PUSH1 0x20 ADD DUP3 ADD PUSH1 0x40 MSTORE DUP1 ISZERO PUSH2 0x5E2 JUMPI DUP2 PUSH1 0x20 ADD PUSH1 0x20 DUP3 MUL DUP1 CODESIZE DUP4 CODECOPY ADD SWAP1 POP JUMPDEST POP SWAP4 POP PUSH1 0x0 JUMPDEST DUP2 DUP2 LT ISZERO PUSH2 0x68F JUMPI PUSH1 0x0 DUP4 PUSH1 0x4 ADD DUP3 DUP11 ADD DUP2 SLOAD DUP2 LT PUSH2 0x603 JUMPI INVALID JUMPDEST SWAP1 PUSH1 0x0 MSTORE PUSH1 0x20 PUSH1 0x0 KECCAK256 ADD PUSH1 0x0 SWAP1 SLOAD SWAP1 PUSH2 0x100 EXP SWAP1 DIV PUSH1 0x1 PUSH1 0x1 PUSH1 0xA0 SHL SUB AND SWAP1 POP DUP1 DUP8 DUP4 DUP2 MLOAD DUP2 LT PUSH2 0x630 JUMPI INVALID JUMPDEST PUSH1 0x1 PUSH1 0x1 PUSH1 0xA0 SHL SUB SWAP3 DUP4 AND PUSH1 0x20 SWAP2 DUP3 MUL SWAP3 SWAP1 SWAP3 ADD DUP2 ADD SWAP2 SWAP1 SWAP2 MSTORE SWAP1 DUP3 AND PUSH1 0x0 SWAP1 DUP2 MSTORE PUSH1 0x5 DUP7 ADD SWAP1 SWAP2 MSTORE PUSH1 0x40 SWAP1 KECCAK256 SLOAD DUP7 MLOAD PUSH2 0x100 SWAP1 SWAP2 DIV PUSH1 0xFF AND SWAP1 DUP8 SWAP1 DUP5 SWAP1 DUP2 LT PUSH2 0x676 JUMPI INVALID JUMPDEST SWAP2 ISZERO ISZERO PUSH1 0x20 SWAP3 DUP4 MUL SWAP2 SWAP1 SWAP2 ADD SWAP1 SWAP2 ADD MSTORE POP PUSH1 0x1 ADD PUSH2 0x5E8 JUMP JUMPDEST POP DUP7 ADD SWAP2 POP POP SWAP4 POP SWAP4 POP SWAP4 SWAP1 POP JUMP JUMPDEST PUSH1 0x0 SLOAD PUSH1 0x1 PUSH1 0x1 PUSH1 0xA0 SHL SUB AND CALLER EQ PUSH2 0x6F9 JUMPI PUSH1 0x40 DUP1 MLOAD PUSH3 0x461BCD PUSH1 0xE5 SHL DUP2 MSTORE PUSH1 0x20 PUSH1 0x4 DUP3 ADD MSTORE PUSH1 0x19 PUSH1 0x24 DUP3 ADD MSTORE PUSH25 0x4F6E6C792043726561746F722043616E2050726F6363657373 PUSH1 0x38 SHL PUSH1 0x44 DUP3 ADD MSTORE SWAP1 MLOAD SWAP1 DUP2 SWAP1 SUB PUSH1 0x64 ADD SWAP1 REVERT JUMPDEST PUSH2 0x701 PUSH2 0x11EB JUMP JUMPDEST PUSH1 0x1 DUP1 DUP3 MSTORE PUSH1 0x20 DUP1 DUP4 ADD DUP3 DUP2 MSTORE PUSH1 0xC0 DUP5 ADD DUP6 DUP2 MSTORE DUP4 SLOAD PUSH1 0x0 SWAP1 DUP2 MSTORE PUSH1 0x2 DUP1 DUP6 MSTORE PUSH1 0x40 SWAP2 DUP3 SWAP1 KECCAK256 DUP8 MLOAD DUP2 SLOAD SWAP6 MLOAD SWAP4 DUP10 ADD MLOAD PUSH1 0x60 DUP11 ADD MLOAD PUSH1 0x80 DUP12 ADD MLOAD PUSH1 0x1 PUSH1 0x1 PUSH1 0xA0 SHL SUB AND PUSH5 0x100000000 MUL PUSH5 0x100000000 PUSH1 0x1 PUSH1 0xC0 SHL SUB NOT SWAP2 ISZERO ISZERO PUSH4 0x1000000 MUL PUSH4 0xFF000000 NOT SWAP4 ISZERO ISZERO PUSH3 0x10000 MUL PUSH3 0xFF0000 NOT SWAP9 ISZERO ISZERO PUSH2 0x100 MUL PUSH2 0xFF00 NOT SWAP7 ISZERO ISZERO PUSH1 0xFF NOT SWAP1 SWAP13 AND SWAP12 SWAP1 SWAP12 OR SWAP6 SWAP1 SWAP6 AND SWAP10 SWAP1 SWAP10 OR SWAP7 SWAP1 SWAP7 AND SWAP3 SWAP1 SWAP3 OR AND SWAP6 SWAP1 SWAP6 OR SWAP5 SWAP1 SWAP5 AND SWAP2 SWAP1 SWAP2 OR DUP4 SSTORE PUSH1 0xA0 DUP7 ADD MLOAD SWAP5 DUP4 ADD SWAP5 SWAP1 SWAP5 SSTORE MLOAD DUP1 MLOAD DUP6 SWAP5 SWAP3 SWAP4 PUSH2 0x7CC SWAP4 DUP6 ADD SWAP3 ADD SWAP1 PUSH2 0x1239 JUMP JUMPDEST POP PUSH1 0xE0 DUP3 ADD MLOAD PUSH1 0x3 DUP3 ADD SSTORE PUSH2 0x100 DUP3 ADD MLOAD DUP1 MLOAD PUSH2 0x7F3 SWAP2 PUSH1 0x4 DUP5 ADD SWAP2 PUSH1 0x20 SWAP1 SWAP2 ADD SWAP1 PUSH2 0x12B7 JUMP JUMPDEST POP POP PUSH1 0x1 DUP1 SLOAD DUP2 ADD SWAP1 SSTORE POP POP POP JUMP JUMPDEST PUSH1 0x0 SLOAD PUSH1 0x1 PUSH1 0x1 PUSH1 0xA0 SHL SUB AND DUP2 JUMP JUMPDEST PUSH1 0x0 DUP2 DUP2 MSTORE PUSH1 0x2 PUSH1 0x20 MSTORE PUSH1 0x40 DUP2 KECCAK256 DUP1 SLOAD DUP3 SWAP2 PUSH1 0x60 SWAP2 DUP4 SWAP2 DUP3 SWAP2 DUP3 SWAP2 SWAP1 PUSH1 0xFF AND PUSH2 0x881 JUMPI PUSH1 0x40 DUP1 MLOAD PUSH3 0x461BCD PUSH1 0xE5 SHL DUP2 MSTORE PUSH1 0x20 PUSH1 0x4 DUP3 ADD MSTORE PUSH1 0x14 PUSH1 0x24 DUP3 ADD MSTORE PUSH32 0x53757276657920646F65736E2774206578697374000000000000000000000000 PUSH1 0x44 DUP3 ADD MSTORE SWAP1 MLOAD SWAP1 DUP2 SWAP1 SUB PUSH1 0x64 ADD SWAP1 REVERT JUMPDEST DUP1 SLOAD PUSH1 0x2 DUP1 DUP4 ADD DUP1 SLOAD PUSH1 0x40 DUP1 MLOAD PUSH1 0x20 PUSH2 0x100 PUSH1 0x1 DUP6 AND ISZERO DUP2 MUL PUSH1 0x0 NOT ADD SWAP1 SWAP5 AND SWAP6 SWAP1 SWAP6 DIV PUSH1 0x1F DUP2 ADD DUP7 SWAP1 DIV DUP7 MUL DUP3 ADD DUP7 ADD SWAP1 SWAP3 MSTORE DUP2 DUP2 MSTORE SWAP2 DUP6 DIV PUSH1 0xFF SWAP1 DUP2 AND SWAP13 POP PUSH4 0x1000000 SWAP1 SWAP6 DIV SWAP1 SWAP5 AND SWAP10 POP SWAP3 SWAP1 SWAP2 DUP4 ADD DUP3 DUP3 DUP1 ISZERO PUSH2 0x923 JUMPI DUP1 PUSH1 0x1F LT PUSH2 0x8F8 JUMPI PUSH2 0x100 DUP1 DUP4 SLOAD DIV MUL DUP4 MSTORE SWAP2 PUSH1 0x20 ADD SWAP2 PUSH2 0x923 JUMP JUMPDEST DUP3 ADD SWAP2 SWAP1 PUSH1 0x0 MSTORE PUSH1 0x20 PUSH1 0x0 KECCAK256 SWAP1 JUMPDEST DUP2 SLOAD DUP2 MSTORE SWAP1 PUSH1 0x1 ADD SWAP1 PUSH1 0x20 ADD DUP1 DUP4 GT PUSH2 0x906 JUMPI DUP3 SWAP1 SUB PUSH1 0x1F AND DUP3 ADD SWAP2 JUMPDEST POP POP POP POP PUSH1 0x4 DUP4 ADD SLOAD PUSH1 0x3 DUP5 ADD SLOAD SWAP4 SLOAD SWAP10 SWAP12 SWAP9 SWAP11 POP SWAP2 SWAP9 SWAP2 SWAP8 SWAP3 SWAP7 POP POP PUSH5 0x100000000 SWAP1 DIV PUSH1 0x1 PUSH1 0x1 PUSH1 0xA0 SHL SUB AND SWAP4 POP SWAP2 POP POP JUMP JUMPDEST PUSH1 0x1 SLOAD DUP2 JUMP JUMPDEST PUSH1 0x0 SLOAD PUSH1 0x1 PUSH1 0x1 PUSH1 0xA0 SHL SUB AND CALLER EQ PUSH2 0x9B9 JUMPI PUSH1 0x40 DUP1 MLOAD PUSH3 0x461BCD PUSH1 0xE5 SHL DUP2 MSTORE PUSH1 0x20 PUSH1 0x4 DUP3 ADD MSTORE PUSH1 0x19 PUSH1 0x24 DUP3 ADD MSTORE PUSH25 0x4F6E6C792043726561746F722043616E2050726F6363657373 PUSH1 0x38 SHL PUSH1 0x44 DUP3 ADD MSTORE SWAP1 MLOAD SWAP1 DUP2 SWAP1 SUB PUSH1 0x64 ADD SWAP1 REVERT JUMPDEST PUSH1 0x0 SWAP2 DUP3 MSTORE PUSH1 0x2 PUSH1 0x20 MSTORE PUSH1 0x40 SWAP1 SWAP2 KECCAK256 DUP1 SLOAD PUSH1 0x1 PUSH1 0x1 PUSH1 0xA0 SHL SUB SWAP1 SWAP3 AND PUSH5 0x100000000 MUL PUSH5 0x100000000 PUSH1 0x1 PUSH1 0xC0 SHL SUB NOT PUSH4 0xFF000000 NOT SWAP1 SWAP4 AND PUSH4 0x1000000 OR SWAP3 SWAP1 SWAP3 AND SWAP2 SWAP1 SWAP2 OR SWAP1 SSTORE JUMP JUMPDEST PUSH1 0x0 DUP2 DUP2 MSTORE PUSH1 0x2 PUSH1 0x20 MSTORE PUSH1 0x40 DUP2 KECCAK256 DUP1 SLOAD DUP3 SWAP2 SWAP1 PUSH1 0xFF AND PUSH2 0xA5F JUMPI PUSH1 0x40 DUP1 MLOAD PUSH3 0x461BCD PUSH1 0xE5 SHL DUP2 MSTORE PUSH1 0x20 PUSH1 0x4 DUP3 ADD MSTORE PUSH1 0x11 PUSH1 0x24 DUP3 ADD MSTORE PUSH17 0x14DD5C9D995E48135D5CDD08115E1A5CDD PUSH1 0x7A SHL PUSH1 0x44 DUP3 ADD MSTORE SWAP1 MLOAD SWAP1 DUP2 SWAP1 SUB PUSH1 0x64 ADD SWAP1 REVERT JUMPDEST SLOAD PUSH4 0x1000000 DUP2 DIV PUSH1 0xFF AND SWAP5 PUSH5 0x100000000 SWAP1 SWAP2 DIV PUSH1 0x1 PUSH1 0x1 PUSH1 0xA0 SHL SUB AND SWAP4 POP SWAP2 POP POP JUMP JUMPDEST PUSH1 0x0 DUP2 DUP2 MSTORE PUSH1 0x2 PUSH1 0x20 MSTORE PUSH1 0x40 DUP2 KECCAK256 DUP1 SLOAD PUSH3 0x10000 SWAP1 DIV PUSH1 0xFF AND PUSH2 0xAEE JUMPI PUSH1 0x40 DUP1 MLOAD PUSH3 0x461BCD PUSH1 0xE5 SHL DUP2 MSTORE PUSH1 0x20 PUSH1 0x4 DUP3 ADD MSTORE PUSH1 0x16 PUSH1 0x24 DUP3 ADD MSTORE PUSH32 0x537572766579204D7573742041737369676E4861736800000000000000000000 PUSH1 0x44 DUP3 ADD MSTORE SWAP1 MLOAD SWAP1 DUP2 SWAP1 SUB PUSH1 0x64 ADD SWAP1 REVERT JUMPDEST PUSH1 0x1 ADD SLOAD SWAP3 SWAP2 POP POP JUMP JUMPDEST PUSH1 0x60 PUSH1 0x0 PUSH1 0x2 PUSH1 0x0 DUP5 DUP2 MSTORE PUSH1 0x20 ADD SWAP1 DUP2 MSTORE PUSH1 0x20 ADD PUSH1 0x0 KECCAK256 SWAP1 POP DUP1 PUSH1 0x3 ADD SLOAD PUSH1 0x40 MLOAD SWAP1 DUP1 DUP3 MSTORE DUP1 PUSH1 0x20 MUL PUSH1 0x20 ADD DUP3 ADD PUSH1 0x40 MSTORE DUP1 ISZERO PUSH2 0xB3F JUMPI DUP2 PUSH1 0x20 ADD PUSH1 0x20 DUP3 MUL DUP1 CODESIZE DUP4 CODECOPY ADD SWAP1 POP JUMPDEST POP SWAP2 POP PUSH1 0x0 DUP1 JUMPDEST PUSH1 0x4 DUP4 ADD SLOAD DUP2 LT ISZERO PUSH2 0xC01 JUMPI PUSH1 0x0 DUP4 PUSH1 0x5 ADD PUSH1 0x0 DUP6 PUSH1 0x4 ADD DUP5 DUP2 SLOAD DUP2 LT PUSH2 0xB69 JUMPI INVALID JUMPDEST PUSH1 0x0 SWAP2 DUP3 MSTORE PUSH1 0x20 DUP1 DUP4 KECCAK256 SWAP1 SWAP2 ADD SLOAD PUSH1 0x1 PUSH1 0x1 PUSH1 0xA0 SHL SUB AND DUP4 MSTORE DUP3 ADD SWAP3 SWAP1 SWAP3 MSTORE PUSH1 0x40 ADD SWAP1 KECCAK256 DUP1 SLOAD SWAP1 SWAP2 POP PUSH1 0xFF PUSH2 0x100 SWAP1 SWAP2 DIV AND ISZERO PUSH2 0xBF8 JUMPI DUP4 PUSH1 0x4 ADD DUP3 DUP2 SLOAD DUP2 LT PUSH2 0xBAF JUMPI INVALID JUMPDEST SWAP1 PUSH1 0x0 MSTORE PUSH1 0x20 PUSH1 0x0 KECCAK256 ADD PUSH1 0x0 SWAP1 SLOAD SWAP1 PUSH2 0x100 EXP SWAP1 DIV PUSH1 0x1 PUSH1 0x1 PUSH1 0xA0 SHL SUB AND DUP6 DUP5 DUP2 MLOAD DUP2 LT PUSH2 0xBD9 JUMPI INVALID JUMPDEST PUSH1 0x1 PUSH1 0x1 PUSH1 0xA0 SHL SUB SWAP1 SWAP3 AND PUSH1 0x20 SWAP3 DUP4 MUL SWAP2 SWAP1 SWAP2 ADD SWAP1 SWAP2 ADD MSTORE PUSH1 0x1 SWAP1 SWAP3 ADD SWAP2 JUMPDEST POP PUSH1 0x1 ADD PUSH2 0xB46 JUMP JUMPDEST POP POP POP SWAP2 SWAP1 POP JUMP JUMPDEST PUSH1 0x0 SLOAD PUSH1 0x1 PUSH1 0x1 PUSH1 0xA0 SHL SUB AND CALLER EQ PUSH2 0xC64 JUMPI PUSH1 0x40 DUP1 MLOAD PUSH3 0x461BCD PUSH1 0xE5 SHL DUP2 MSTORE PUSH1 0x20 PUSH1 0x4 DUP3 ADD MSTORE PUSH1 0x19 PUSH1 0x24 DUP3 ADD MSTORE PUSH25 0x4F6E6C792043726561746F722043616E2050726F6363657373 PUSH1 0x38 SHL PUSH1 0x44 DUP3 ADD MSTORE SWAP1 MLOAD SWAP1 DUP2 SWAP1 SUB PUSH1 0x64 ADD SWAP1 REVERT JUMPDEST PUSH1 0x0 DUP3 DUP2 MSTORE PUSH1 0x2 PUSH1 0x20 MSTORE PUSH1 0x40 SWAP1 KECCAK256 DUP1 SLOAD PUSH1 0xFF AND PUSH2 0xCBC JUMPI PUSH1 0x40 DUP1 MLOAD PUSH3 0x461BCD PUSH1 0xE5 SHL DUP2 MSTORE PUSH1 0x20 PUSH1 0x4 DUP3 ADD MSTORE PUSH1 0x11 PUSH1 0x24 DUP3 ADD MSTORE PUSH17 0x14DD5C9D995E48135D5CDD08115E1A5CDD PUSH1 0x7A SHL PUSH1 0x44 DUP3 ADD MSTORE SWAP1 MLOAD SWAP1 DUP2 SWAP1 SUB PUSH1 0x64 ADD SWAP1 REVERT JUMPDEST DUP1 SLOAD PUSH2 0x100 SWAP1 DIV PUSH1 0xFF AND PUSH2 0xD06 JUMPI PUSH1 0x40 DUP1 MLOAD PUSH3 0x461BCD PUSH1 0xE5 SHL DUP2 MSTORE PUSH1 0x20 PUSH1 0x4 DUP3 ADD MSTORE PUSH1 0xC PUSH1 0x24 DUP3 ADD MSTORE PUSH12 0x53757276657920436C6F7365 PUSH1 0xA0 SHL PUSH1 0x44 DUP3 ADD MSTORE SWAP1 MLOAD SWAP1 DUP2 SWAP1 SUB PUSH1 0x64 ADD SWAP1 REVERT JUMPDEST PUSH1 0x0 JUMPDEST DUP3 MLOAD DUP2 LT ISZERO PUSH2 0xDEF JUMPI PUSH1 0x0 DUP3 PUSH1 0x5 ADD PUSH1 0x0 DUP6 DUP5 DUP2 MLOAD DUP2 LT PUSH2 0xD26 JUMPI INVALID JUMPDEST PUSH1 0x20 SWAP1 DUP2 MUL SWAP2 SWAP1 SWAP2 ADD DUP2 ADD MLOAD PUSH1 0x1 PUSH1 0x1 PUSH1 0xA0 SHL SUB AND DUP3 MSTORE DUP2 ADD SWAP2 SWAP1 SWAP2 MSTORE PUSH1 0x40 ADD PUSH1 0x0 KECCAK256 DUP1 SLOAD SWAP1 SWAP2 POP PUSH1 0xFF AND PUSH2 0xDA2 JUMPI PUSH1 0x40 DUP1 MLOAD PUSH3 0x461BCD PUSH1 0xE5 SHL DUP2 MSTORE PUSH1 0x20 PUSH1 0x4 DUP3 ADD DUP2 SWAP1 MSTORE PUSH1 0x24 DUP3 ADD MSTORE PUSH32 0x4861766520616E206163636F756E7420646F65732774206E6F74206578697374 PUSH1 0x44 DUP3 ADD MSTORE SWAP1 MLOAD SWAP1 DUP2 SWAP1 SUB PUSH1 0x64 ADD SWAP1 REVERT JUMPDEST DUP1 SLOAD PUSH2 0x100 SWAP1 DIV PUSH1 0xFF AND ISZERO PUSH2 0xDC2 JUMPI PUSH1 0x3 DUP4 ADD DUP1 SLOAD PUSH1 0x0 NOT ADD SWAP1 SSTORE PUSH2 0xDCE JUMP JUMPDEST PUSH1 0x3 DUP4 ADD DUP1 SLOAD PUSH1 0x1 ADD SWAP1 SSTORE JUMPDEST DUP1 SLOAD PUSH2 0xFF00 NOT DUP2 AND PUSH2 0x100 SWAP2 DUP3 SWAP1 DIV PUSH1 0xFF AND ISZERO SWAP1 SWAP2 MUL OR SWAP1 SSTORE PUSH1 0x1 ADD PUSH2 0xD09 JUMP JUMPDEST POP POP POP POP JUMP JUMPDEST PUSH1 0x0 DUP2 DUP2 MSTORE PUSH1 0x2 PUSH1 0x20 MSTORE PUSH1 0x40 SWAP1 KECCAK256 DUP1 SLOAD PUSH1 0xFF AND PUSH2 0xE4D JUMPI PUSH1 0x40 DUP1 MLOAD PUSH3 0x461BCD PUSH1 0xE5 SHL DUP2 MSTORE PUSH1 0x20 PUSH1 0x4 DUP3 ADD MSTORE PUSH1 0x11 PUSH1 0x24 DUP3 ADD MSTORE PUSH17 0x14DD5C9D995E48135D5CDD08115E1A5CDD PUSH1 0x7A SHL PUSH1 0x44 DUP3 ADD MSTORE SWAP1 MLOAD SWAP1 DUP2 SWAP1 SUB PUSH1 0x64 ADD SWAP1 REVERT JUMPDEST DUP1 SLOAD PUSH2 0x100 SWAP1 DIV PUSH1 0xFF AND PUSH2 0xE97 JUMPI PUSH1 0x40 DUP1 MLOAD PUSH3 0x461BCD PUSH1 0xE5 SHL DUP2 MSTORE PUSH1 0x20 PUSH1 0x4 DUP3 ADD MSTORE PUSH1 0xC PUSH1 0x24 DUP3 ADD MSTORE PUSH12 0x53757276657920436C6F7365 PUSH1 0xA0 SHL PUSH1 0x44 DUP3 ADD MSTORE SWAP1 MLOAD SWAP1 DUP2 SWAP1 SUB PUSH1 0x64 ADD SWAP1 REVERT JUMPDEST CALLER PUSH1 0x0 SWAP1 DUP2 MSTORE PUSH1 0x5 DUP3 ADD PUSH1 0x20 MSTORE PUSH1 0x40 SWAP1 KECCAK256 SLOAD PUSH1 0xFF AND ISZERO PUSH2 0xEF4 JUMPI PUSH1 0x40 DUP1 MLOAD PUSH3 0x461BCD PUSH1 0xE5 SHL DUP2 MSTORE PUSH1 0x20 PUSH1 0x4 DUP3 ADD MSTORE PUSH1 0x13 PUSH1 0x24 DUP3 ADD MSTORE PUSH19 0x1058D8DBDD5B9D08185B1C9958591E48105919 PUSH1 0x6A SHL PUSH1 0x44 DUP3 ADD MSTORE SWAP1 MLOAD SWAP1 DUP2 SWAP1 SUB PUSH1 0x64 ADD SWAP1 REVERT JUMPDEST PUSH2 0xEFC PUSH2 0x1318 JUMP JUMPDEST PUSH1 0x1 DUP1 DUP3 MSTORE PUSH1 0x4 DUP4 ADD DUP1 SLOAD SWAP2 DUP3 ADD DUP2 SSTORE PUSH1 0x0 SWAP1 DUP2 MSTORE PUSH1 0x20 DUP1 DUP3 KECCAK256 SWAP1 SWAP3 ADD DUP1 SLOAD PUSH1 0x1 PUSH1 0x1 PUSH1 0xA0 SHL SUB NOT AND CALLER SWAP1 DUP2 OR SWAP1 SWAP2 SSTORE DUP2 MSTORE PUSH1 0x5 SWAP1 SWAP4 ADD DUP2 MSTORE PUSH1 0x40 SWAP1 SWAP3 KECCAK256 DUP2 MLOAD DUP2 SLOAD SWAP4 SWAP1 SWAP3 ADD MLOAD ISZERO ISZERO PUSH2 0x100 MUL PUSH2 0xFF00 NOT SWAP3 ISZERO ISZERO PUSH1 0xFF NOT SWAP1 SWAP5 AND SWAP4 SWAP1 SWAP4 OR SWAP2 SWAP1 SWAP2 AND SWAP2 SWAP1 SWAP2 OR SWAP1 SSTORE POP JUMP JUMPDEST PUSH1 0x0 SLOAD PUSH1 0x1 PUSH1 0x1 PUSH1 0xA0 SHL SUB AND CALLER EQ PUSH2 0xFC2 JUMPI PUSH1 0x40 DUP1 MLOAD PUSH3 0x461BCD PUSH1 0xE5 SHL DUP2 MSTORE PUSH1 0x20 PUSH1 0x4 DUP3 ADD MSTORE PUSH1 0x19 PUSH1 0x24 DUP3 ADD MSTORE PUSH25 0x4F6E6C792043726561746F722043616E2050726F6363657373 PUSH1 0x38 SHL PUSH1 0x44 DUP3 ADD MSTORE SWAP1 MLOAD SWAP1 DUP2 SWAP1 SUB PUSH1 0x64 ADD SWAP1 REVERT JUMPDEST PUSH1 0x0 DUP2 DUP2 MSTORE PUSH1 0x2 PUSH1 0x20 MSTORE PUSH1 0x40 SWAP1 KECCAK256 DUP1 SLOAD PUSH2 0x100 SWAP1 DIV PUSH1 0xFF AND ISZERO PUSH2 0x1020 JUMPI PUSH1 0x40 DUP1 MLOAD PUSH3 0x461BCD PUSH1 0xE5 SHL DUP2 MSTORE PUSH1 0x20 PUSH1 0x4 DUP3 ADD MSTORE PUSH1 0x11 PUSH1 0x24 DUP3 ADD MSTORE PUSH17 0x537572766579204D75737420436C6F7365 PUSH1 0x78 SHL PUSH1 0x44 DUP3 ADD MSTORE SWAP1 MLOAD SWAP1 DUP2 SWAP1 SUB PUSH1 0x64 ADD SWAP1 REVERT JUMPDEST PUSH2 0x1029 DUP3 PUSH2 0xAF8 JUMP JUMPDEST ADDRESS PUSH1 0x0 DUP1 SWAP1 SLOAD SWAP1 PUSH2 0x100 EXP SWAP1 DIV PUSH1 0x1 PUSH1 0x1 PUSH1 0xA0 SHL SUB AND PUSH1 0x40 MLOAD PUSH1 0x20 ADD DUP1 DUP5 DUP1 MLOAD SWAP1 PUSH1 0x20 ADD SWAP1 PUSH1 0x20 MUL DUP1 DUP4 DUP4 PUSH1 0x0 JUMPDEST DUP4 DUP2 LT ISZERO PUSH2 0x106F JUMPI DUP2 DUP2 ADD MLOAD DUP4 DUP3 ADD MSTORE PUSH1 0x20 ADD PUSH2 0x1057 JUMP JUMPDEST POP POP POP PUSH12 0xFFFFFFFFFFFFFFFFFFFFFFFF NOT PUSH1 0x60 SWAP8 DUP9 SHL DUP2 AND SWAP5 SWAP1 SWAP3 ADD SWAP4 DUP5 MSTORE POP SWAP4 SWAP1 SWAP5 SHL SWAP1 SWAP3 AND PUSH1 0x14 DUP4 ADD MSTORE POP PUSH1 0x40 DUP1 MLOAD PUSH1 0x8 DUP2 DUP5 SUB ADD DUP2 MSTORE PUSH1 0x28 SWAP1 SWAP3 ADD SWAP1 MSTORE DUP1 MLOAD PUSH1 0x20 SWAP1 SWAP2 ADD KECCAK256 PUSH1 0x1 DUP5 ADD SSTORE POP POP DUP1 SLOAD PUSH3 0xFF0000 NOT AND PUSH3 0x10000 OR SWAP1 SSTORE POP JUMP JUMPDEST PUSH1 0x0 SLOAD PUSH1 0x1 PUSH1 0x1 PUSH1 0xA0 SHL SUB AND CALLER EQ PUSH2 0x112B JUMPI PUSH1 0x40 DUP1 MLOAD PUSH3 0x461BCD PUSH1 0xE5 SHL DUP2 MSTORE PUSH1 0x20 PUSH1 0x4 DUP3 ADD MSTORE PUSH1 0x19 PUSH1 0x24 DUP3 ADD MSTORE PUSH25 0x4F6E6C792043726561746F722043616E2050726F6363657373 PUSH1 0x38 SHL PUSH1 0x44 DUP3 ADD MSTORE SWAP1 MLOAD SWAP1 DUP2 SWAP1 SUB PUSH1 0x64 ADD SWAP1 REVERT JUMPDEST PUSH1 0x0 DUP2 DUP2 MSTORE PUSH1 0x2 PUSH1 0x20 MSTORE PUSH1 0x40 SWAP1 KECCAK256 DUP1 SLOAD PUSH1 0xFF AND PUSH2 0x1183 JUMPI PUSH1 0x40 DUP1 MLOAD PUSH3 0x461BCD PUSH1 0xE5 SHL DUP2 MSTORE PUSH1 0x20 PUSH1 0x4 DUP3 ADD MSTORE PUSH1 0x11 PUSH1 0x24 DUP3 ADD MSTORE PUSH17 0x14DD5C9D995E48135D5CDD08115E1A5CDD PUSH1 0x7A SHL PUSH1 0x44 DUP3 ADD MSTORE SWAP1 MLOAD SWAP1 DUP2 SWAP1 SUB PUSH1 0x64 ADD SWAP1 REVERT JUMPDEST PUSH1 0x4 DUP2 PUSH1 0x3 ADD SLOAD LT ISZERO PUSH2 0x11C7 JUMPI PUSH1 0x40 MLOAD PUSH3 0x461BCD PUSH1 0xE5 SHL DUP2 MSTORE PUSH1 0x4 ADD DUP1 DUP1 PUSH1 0x20 ADD DUP3 DUP2 SUB DUP3 MSTORE PUSH1 0x25 DUP2 MSTORE PUSH1 0x20 ADD DUP1 PUSH2 0x1371 PUSH1 0x25 SWAP2 CODECOPY PUSH1 0x40 ADD SWAP2 POP POP PUSH1 0x40 MLOAD DUP1 SWAP2 SUB SWAP1 REVERT JUMPDEST PUSH1 0x0 DUP3 DUP2 MSTORE PUSH1 0x2 PUSH1 0x20 MSTORE PUSH1 0x40 SWAP1 KECCAK256 DUP1 SLOAD PUSH2 0xFF00 NOT AND SWAP1 SSTORE PUSH2 0x11E7 DUP3 PUSH2 0xF67 JUMP JUMPDEST POP POP JUMP JUMPDEST PUSH1 0x40 DUP1 MLOAD PUSH2 0x120 DUP2 ADD DUP3 MSTORE PUSH1 0x0 DUP1 DUP3 MSTORE PUSH1 0x20 DUP3 ADD DUP2 SWAP1 MSTORE SWAP2 DUP2 ADD DUP3 SWAP1 MSTORE PUSH1 0x60 DUP1 DUP3 ADD DUP4 SWAP1 MSTORE PUSH1 0x80 DUP3 ADD DUP4 SWAP1 MSTORE PUSH1 0xA0 DUP3 ADD DUP4 SWAP1 MSTORE PUSH1 0xC0 DUP3 ADD DUP2 SWAP1 MSTORE PUSH1 0xE0 DUP3 ADD SWAP3 SWAP1 SWAP3 MSTORE PUSH2 0x100 DUP2 ADD SWAP2 SWAP1 SWAP2 MSTORE SWAP1 JUMP JUMPDEST DUP3 DUP1 SLOAD PUSH1 0x1 DUP2 PUSH1 0x1 AND ISZERO PUSH2 0x100 MUL SUB AND PUSH1 0x2 SWAP1 DIV SWAP1 PUSH1 0x0 MSTORE PUSH1 0x20 PUSH1 0x0 KECCAK256 SWAP1 PUSH1 0x1F ADD PUSH1 0x20 SWAP1 DIV DUP2 ADD SWAP3 DUP3 PUSH1 0x1F LT PUSH2 0x127A JUMPI DUP1 MLOAD PUSH1 0xFF NOT AND DUP4 DUP1 ADD OR DUP6 SSTORE PUSH2 0x12A7 JUMP JUMPDEST DUP3 DUP1 ADD PUSH1 0x1 ADD DUP6 SSTORE DUP3 ISZERO PUSH2 0x12A7 JUMPI SWAP2 DUP3 ADD JUMPDEST DUP3 DUP2 GT ISZERO PUSH2 0x12A7 JUMPI DUP3 MLOAD DUP3 SSTORE SWAP2 PUSH1 0x20 ADD SWAP2 SWAP1 PUSH1 0x1 ADD SWAP1 PUSH2 0x128C JUMP JUMPDEST POP PUSH2 0x12B3 SWAP3 SWAP2 POP PUSH2 0x132F JUMP JUMPDEST POP SWAP1 JUMP JUMPDEST DUP3 DUP1 SLOAD DUP3 DUP3 SSTORE SWAP1 PUSH1 0x0 MSTORE PUSH1 0x20 PUSH1 0x0 KECCAK256 SWAP1 DUP2 ADD SWAP3 DUP3 ISZERO PUSH2 0x130C JUMPI SWAP2 PUSH1 0x20 MUL DUP3 ADD JUMPDEST DUP3 DUP2 GT ISZERO PUSH2 0x130C JUMPI DUP3 MLOAD DUP3 SLOAD PUSH1 0x1 PUSH1 0x1 PUSH1 0xA0 SHL SUB NOT AND PUSH1 0x1 PUSH1 0x1 PUSH1 0xA0 SHL SUB SWAP1 SWAP2 AND OR DUP3 SSTORE PUSH1 0x20 SWAP1 SWAP3 ADD SWAP2 PUSH1 0x1 SWAP1 SWAP2 ADD SWAP1 PUSH2 0x12D7 JUMP JUMPDEST POP PUSH2 0x12B3 SWAP3 SWAP2 POP PUSH2 0x134C JUMP JUMPDEST PUSH1 0x40 DUP1 MLOAD DUP1 DUP3 ADD SWAP1 SWAP2 MSTORE PUSH1 0x0 DUP1 DUP3 MSTORE PUSH1 0x20 DUP3 ADD MSTORE SWAP1 JUMP JUMPDEST PUSH2 0x1349 SWAP2 SWAP1 JUMPDEST DUP1 DUP3 GT ISZERO PUSH2 0x12B3 JUMPI PUSH1 0x0 DUP2 SSTORE PUSH1 0x1 ADD PUSH2 0x1335 JUMP JUMPDEST SWAP1 JUMP JUMPDEST PUSH2 0x1349 SWAP2 SWAP1 JUMPDEST DUP1 DUP3 GT ISZERO PUSH2 0x12B3 JUMPI DUP1 SLOAD PUSH1 0x1 PUSH1 0x1 PUSH1 0xA0 SHL SUB NOT AND DUP2 SSTORE PUSH1 0x1 ADD PUSH2 0x1352 JUMP INVALID COINBASE PUSH17 0x70726F766564206D656D626572206D7573 PUSH21 0x206E656564206D6F7265207468616E2034A2646970 PUSH7 0x73582212208753 0xD2 0xCF 0xDB CALLER DIV 0xB8 SWAP4 EXTCODEHASH 0x1E PUSH12 0x1847B2751F53C543D060C762 PUSH15 0x79878617B0069764736F6C63430006 MUL STOP CALLER "}}}